:0300000002001EDD
:05000B00B287C28C3237
:10001B00C28E32D2AFD2A9D2AB758911319631963D
:10002B00312B319631963196748031683196901020
:10003B00003188319674C031683196901011318837
:10004B00784B11F7D28E208E05D8F7020061208CE9
:10005B00F511FE020051784B11F7D28E208E05D888
:10006B00F7020077208CF53107020067784B11F708
:10007B00D28E208E05D8F702008D208CF531100220
:10008B00007D784B11F7D28E208E05D8F70200A396
:10009B00208CF53107020093786411F7D28E208EF5
:1000AB0005D8F70200B9208CF531190200A9C28CD2
:1000BB00C287783211F7D28E208EFDD8F778641173
:1000CB00F7D28E208E05D8F70200DE208CF5311981
:1000DB000200CE786411F7D28E208E05D8F702007D
:1000EB00F4208CF531220200E402004B758DB175C2
:1000FB008BE022758CEE758A3FD28C22758CF07555
:10010B008A30D28C22758CF2758AB7D28C22758C80
:10011B00F5758A72D28C22758CF4758A2AD28C2250
:10012B0075A038C280C281D2823196C28231967557
:10013B00A00CC280C281D2823196C282319675A048
:10014B0001C280C281D2823196C282319675A006DD
:10015B00C280C281D2823196C282319622F5A0C270
:03016B0080C281CE
:10016E00D2823196C282319622F5A0D280C281D23D
:10017E00823196C2823196319622C0E0E4936005B8
:10018E003177A380F7D0E022C000C001780179FF5B
:09019E00D9FED8FAD001D00022EC
:101000002020524F4C4C494E472054494D452020FA
:1010100000202020202020202020202020202020F0
:021020002000AE
:00000001FF
